{
  "_format": "hh-sol-artifact-1",
  "contractName": "ChainBallot",
  "sourceName": "contracts/ChainBallot.sol",
  "abi": [
    {
      "inputs": [
        {
          "internalType": "string",
          "name": "identifier",
          "type": "string"
        },
        {
          "internalType": "string",
          "name": "candidate",
          "type": "string"
        }
      ],
      "name": "addCandidate",
      "outputs": [],
      "stateMutability": "nonpayable",
      "type": "function"
    },
    {
      "inputs": [
        {
          "internalType": "string",
          "name": "identifier",
          "type": "string"
        },
        {
          "internalType": "string",
          "name": "title",
          "type": "string"
        },
        {
          "internalType": "string",
          "name": "description",
          "type": "string"
        },
        {
          "internalType": "uint256",
          "name": "startTime",
          "type": "uint256"
        },
        {
          "internalType": "uint256",
          "name": "endTime",
          "type": "uint256"
        },
        {
          "internalType": "address",
          "name": "nftContract",
          "type": "address"
        },
        {
          "internalType": "string[]",
          "name": "initialCandidates",
          "type": "string[]"
        }
      ],
      "name": "createVoting",
      "outputs": [],
      "stateMutability": "nonpayable",
      "type": "function"
    },
    {
      "inputs": [
        {
          "internalType": "string",
          "name": "identifier",
          "type": "string"
        },
        {
          "internalType": "string",
          "name": "candidate",
          "type": "string"
        }
      ],
      "name": "deleteCandidate",
      "outputs": [],
      "stateMutability": "nonpayable",
      "type": "function"
    },
    {
      "inputs": [
        {
          "internalType": "string",
          "name": "identifier",
          "type": "string"
        }
      ],
      "name": "deleteVoting",
      "outputs": [],
      "stateMutability": "nonpayable",
      "type": "function"
    },
    {
      "inputs": [
        {
          "internalType": "string",
          "name": "identifier",
          "type": "string"
        }
      ],
      "name": "getCandidates",
      "outputs": [
        {
          "internalType": "string[]",
          "name": "",
          "type": "string[]"
        }
      ],
      "stateMutability": "view",
      "type": "function"
    },
    {
      "inputs": [
        {
          "internalType": "string",
          "name": "identifier",
          "type": "string"
        }
      ],
      "name": "getEndDate",
      "outputs": [
        {
          "internalType": "uint256",
          "name": "",
          "type": "uint256"
        }
      ],
      "stateMutability": "view",
      "type": "function"
    },
    {
      "inputs": [],
      "name": "getOngoingVotings",
      "outputs": [
        {
          "internalType": "string[]",
          "name": "",
          "type": "string[]"
        }
      ],
      "stateMutability": "view",
      "type": "function"
    },
    {
      "inputs": [
        {
          "internalType": "string",
          "name": "identifier",
          "type": "string"
        }
      ],
      "name": "getStartDate",
      "outputs": [
        {
          "internalType": "uint256",
          "name": "",
          "type": "uint256"
        }
      ],
      "stateMutability": "view",
      "type": "function"
    },
    {
      "inputs": [
        {
          "internalType": "string",
          "name": "identifier",
          "type": "string"
        },
        {
          "internalType": "string",
          "name": "candidate",
          "type": "string"
        }
      ],
      "name": "getVotes",
      "outputs": [
        {
          "internalType": "uint256",
          "name": "",
          "type": "uint256"
        }
      ],
      "stateMutability": "view",
      "type": "function"
    },
    {
      "inputs": [
        {
          "internalType": "string",
          "name": "identifier",
          "type": "string"
        }
      ],
      "name": "getVotingData",
      "outputs": [
        {
          "internalType": "string[]",
          "name": "candidates",
          "type": "string[]"
        },
        {
          "internalType": "uint256[]",
          "name": "votesCount",
          "type": "uint256[]"
        }
      ],
      "stateMutability": "view",
      "type": "function"
    },
    {
      "inputs": [
        {
          "internalType": "string",
          "name": "identifier",
          "type": "string"
        }
      ],
      "name": "getVotingDetails",
      "outputs": [
        {
          "internalType": "string",
          "name": "title",
          "type": "string"
        },
        {
          "internalType": "string",
          "name": "description",
          "type": "string"
        },
        {
          "internalType": "address",
          "name": "nftContract",
          "type": "address"
        }
      ],
      "stateMutability": "view",
      "type": "function"
    },
    {
      "inputs": [
        {
          "internalType": "string",
          "name": "identifier",
          "type": "string"
        },
        {
          "internalType": "address",
          "name": "user",
          "type": "address"
        }
      ],
      "name": "hasVoterVoted",
      "outputs": [
        {
          "internalType": "bool",
          "name": "",
          "type": "bool"
        }
      ],
      "stateMutability": "view",
      "type": "function"
    },
    {
      "inputs": [
        {
          "internalType": "string",
          "name": "identifier",
          "type": "string"
        },
        {
          "internalType": "string",
          "name": "candidate",
          "type": "string"
        }
      ],
      "name": "vote",
      "outputs": [],
      "stateMutability": "nonpayable",
      "type": "function"
    },
    {
      "inputs": [],
      "name": "votingCounter",
      "outputs": [
        {
          "internalType": "uint256",
          "name": "",
          "type": "uint256"
        }
      ],
      "stateMutability": "view",
      "type": "function"
    }
  ],
  "bytecode": "0x608060405234801561001057600080fd5b50611e4c806100206000396000f3fe608060405234801561001057600080fd5b50600436106100ea5760003560e01c80637192a4e91161008c578063a5f3386511610066578063a5f33865146101e7578063ab4375a7146101fa578063c04198f31461020d578063e8d5940d1461022057600080fd5b80637192a4e91461019e5780638d3c9618146101b15780639a88b7b9146101d457600080fd5b806340f4d3c5116100c857806340f4d3c51461014257806345534763146101575780636546eb3f1461016a5780636c56b6c21461017d57600080fd5b80631780fe20146100ef57806326541b561461010b57806329e9006014610120575b600080fd5b6100f860035481565b6040519081526020015b60405180910390f35b61011e6101193660046116c5565b610233565b005b61013361012e366004611729565b6103b9565b604051610102939291906117b6565b61014a610553565b604051610102919061184c565b61014a610165366004611729565b61062c565b6100f8610178366004611729565b610759565b61019061018b366004611729565b6107b4565b604051610102929190611866565b61011e6101ac36600461196b565b6109e5565b6101c46101bf366004611a3c565b610c2b565b6040519015158152602001610102565b61011e6101e2366004611729565b610ca4565b61011e6101f53660046116c5565b610ef3565b6100f86102083660046116c5565b611115565b6100f861021b366004611729565b611246565b61011e61022e3660046116c5565b6112a1565b600080836040516102449190611a8a565b908152604051908190036020019020600681015490915060ff600160a01b9091041661028b5760405162461bcd60e51b815260040161028290611aa6565b60405180910390fd5b60068101546001600160a01b031633146102e75760405162461bcd60e51b815260206004820152601f60248201527f4f6e6c792063726561746f722063616e206164642063616e64696461746573006044820152606401610282565b60005b600782015481101561039157828051906020012082600701828154811061031357610313611ad5565b9060005260206000200160405161032a9190611b98565b60405180910390200361037f5760405162461bcd60e51b815260206004820152601860248201527f43616e64696461746520616c72656164792065786973747300000000000000006044820152606401610282565b8061038981611bba565b9150506102ea565b5060078101805460018101825560009182526020909120016103b38382611c22565b50505050565b6060806000806000856040516103cf9190611a8a565b908152604051908190036020019020600681015490915060ff600160a01b9091041661040d5760405162461bcd60e51b815260040161028290611aa6565b80600101816002018260050160009054906101000a90046001600160a01b031682805461043990611aeb565b80601f016020809104026020016040519081016040528092919081815260200182805461046590611aeb565b80156104b25780601f10610487576101008083540402835291602001916104b2565b820191906000526020600020905b81548152906001019060200180831161049557829003601f168201915b505050505092508180546104c590611aeb565b80601f01602080910402602001604051908101604052809291908181526020018280546104f190611aeb565b801561053e5780601f106105135761010080835404028352916020019161053e565b820191906000526020600020905b81548152906001019060200180831161052157829003601f168201915b50505050509150935093509350509193909250565b60606001805480602002602001604051908101604052809291908181526020016000905b8282101561062357838290600052602060002001805461059690611aeb565b80601f01602080910402602001604051908101604052809291908181526020018280546105c290611aeb565b801561060f5780601f106105e45761010080835404028352916020019161060f565b820191906000526020600020905b8154815290600101906020018083116105f257829003601f168201915b505050505081526020019060010190610577565b50505050905090565b60606000808360405161063f9190611a8a565b908152604051908190036020019020600681015490915060ff600160a01b9091041661067d5760405162461bcd60e51b815260040161028290611aa6565b80600701805480602002602001604051908101604052809291908181526020016000905b8282101561074d5783829060005260206000200180546106c090611aeb565b80601f01602080910402602001604051908101604052809291908181526020018280546106ec90611aeb565b80156107395780601f1061070e57610100808354040283529160200191610739565b820191906000526020600020905b81548152906001019060200180831161071c57829003601f168201915b5050505050815260200190600101906106a1565b50505050915050919050565b60008060008360405161076c9190611a8a565b908152604051908190036020019020600681015490915060ff600160a01b909104166107aa5760405162461bcd60e51b815260040161028290611aa6565b6003015492915050565b606080600080846040516107c89190611a8a565b908152604051908190036020019020600681015490915060ff600160a01b909104166108065760405162461bcd60e51b815260040161028290611aa6565b60078101548067ffffffffffffffff8111156108245761082461160e565b60405190808252806020026020018201604052801561085757816020015b60608152602001906001900390816108425790505b5093508067ffffffffffffffff8111156108735761087361160e565b60405190808252806020026020018201604052801561089c578160200160208202803683370190505b50925060005b818110156109dd578260070181815481106108bf576108bf611ad5565b9060005260206000200180546108d490611aeb565b80601f016020809104026020016040519081016040528092919081815260200182805461090090611aeb565b801561094d5780601f106109225761010080835404028352916020019161094d565b820191906000526020600020905b81548152906001019060200180831161093057829003601f168201915b505050505085828151811061096457610964611ad5565b60200260200101819052508260090183600701828154811061098857610988611ad5565b9060005260206000200160405161099f9190611b98565b9081526020016040518091039020548482815181106109c0576109c0611ad5565b6020908102919091010152806109d581611bba565b9150506108a2565b505050915091565b6000876040516109f59190611a8a565b9081526040519081900360200190206006015460ff600160a01b9091041615610a605760405162461bcd60e51b815260206004820181905260248201527f566f74696e67206964656e74696669657220616c7265616479206578697374736044820152606401610282565b828410610aba5760405162461bcd60e51b815260206004820152602260248201527f53746172742074696d65206d757374206265206265666f726520656e642074696044820152616d6560f01b6064820152608401610282565b60008088604051610acb9190611a8a565b9081526040519081900360200190206003548155905060018101610aef8882611c22565b5060028101610afe8782611c22565b5060038101859055600481018490556005810180546001600160a01b0319166001600160a01b038516179055600681018054600160a01b6001600160a81b03199091163360ff60a01b19161717905560005b8251811015610bab5781600701838281518110610b6f57610b6f611ad5565b60209081029190910181015182546001810184556000938452919092200190610b989082611c22565b5080610ba381611bba565b915050610b50565b50600154604051600290610bc0908b90611a8a565b908152604051908190036020019020556001805480820182556000919091527fb10e2d527612073b26eecdfd717e6a320cf44b4afac2b0732d9fcbe2b7fa0cf601610c0b8982611c22565b5060038054906000610c1c83611bba565b91905055505050505050505050565b600080600084604051610c3e9190611a8a565b908152604051908190036020019020600681015490915060ff600160a01b90910416610c7c5760405162461bcd60e51b815260040161028290611aa6565b6001600160a01b03831660009081526008909101602052604090205460ff1690505b92915050565b60008082604051610cb59190611a8a565b908152604051908190036020019020600681015490915060ff600160a01b90910416610cf35760405162461bcd60e51b815260040161028290611aa6565b60068101546001600160a01b03163314610d4f5760405162461bcd60e51b815260206004820152601e60248201527f4f6e6c792063726561746f722063616e2064656c65746520766f74696e6700006044820152606401610282565b6000600283604051610d619190611a8a565b908152602001604051809103902054905060006001808080549050610d869190611ce2565b81548110610d9657610d96611ad5565b906000526020600020018054610dab90611aeb565b80601f0160208091040260200160405190810160405280929190818152602001828054610dd790611aeb565b8015610e245780601f10610df957610100808354040283529160200191610e24565b820191906000526020600020905b815481529060010190602001808311610e0757829003601f168201915b505050505090508060018381548110610e3f57610e3f611ad5565b906000526020600020019081610e559190611c22565b5081600282604051610e679190611a8a565b908152604051908190036020019020556001805480610e8857610e88611cf5565b600190038181906000526020600020016000610ea491906115b8565b9055600284604051610eb69190611a8a565b90815260405190819003602001902060009081905560068401805460ff60a01b191690556003805491610ee883611d0b565b919050555050505050565b60008083604051610f049190611a8a565b908152604051908190036020019020600681015490915060ff600160a01b90910416610f425760405162461bcd60e51b815260040161028290611aa6565b60068101546001600160a01b03163314610fa95760405162461bcd60e51b815260206004820152602260248201527f4f6e6c792063726561746f722063616e2064656c6574652063616e6469646174604482015261657360f01b6064820152608401610282565b600781015460005b6007830154811015611018578380519060200120836007018281548110610fda57610fda611ad5565b90600052602060002001604051610ff19190611b98565b60405180910390200361100657809150611018565b8061101081611bba565b915050610fb1565b50600782015481106110625760405162461bcd60e51b815260206004820152601360248201527210d85b991a59185d19481b9bdd08199bdd5b99606a1b6044820152606401610282565b60078201805461107490600190611ce2565b8154811061108457611084611ad5565b906000526020600020018260070182815481106110a3576110a3611ad5565b9060005260206000200190816110b99190611d22565b50816007018054806110cd576110cd611cf5565b6001900381819060005260206000200160006110e991906115b8565b905581600901836040516110fd9190611a8a565b90815260200160405180910390206000905550505050565b6000806000846040516111289190611a8a565b908152604051908190036020019020600681015490915060ff600160a01b909104166111665760405162461bcd60e51b815260040161028290611aa6565b6000805b60078301548110156111d257848051906020012083600701828154811061119357611193611ad5565b906000526020600020016040516111aa9190611b98565b6040518091039020036111c057600191506111d2565b806111ca81611bba565b91505061116a565b508061121b5760405162461bcd60e51b815260206004820152601860248201527710d85b991a59185d1948191bd95cc81b9bdd08195e1a5cdd60421b6044820152606401610282565b816009018460405161122d9190611a8a565b9081526020016040518091039020549250505092915050565b6000806000836040516112599190611a8a565b908152604051908190036020019020600681015490915060ff600160a01b909104166112975760405162461bcd60e51b815260040161028290611aa6565b6004015492915050565b600080836040516112b29190611a8a565b908152604051908190036020019020600681015490915060ff600160a01b909104166112f05760405162461bcd60e51b815260040161028290611aa6565b80600301544210156113445760405162461bcd60e51b815260206004820152601a60248201527f566f74696e6720686173206e6f742073746172746564207965740000000000006044820152606401610282565b80600401544211156113985760405162461bcd60e51b815260206004820152601860248201527f566f74696e672068617320616c726561647920656e64656400000000000000006044820152606401610282565b60058101546040516370a0823160e01b81523360048201526000916001600160a01b0316906370a0823190602401602060405180830381865afa1580156113e3573d6000803e3d6000fd5b505050506040513d601f19601f820116820180604052508101906114079190611dfd565b1161144b5760405162461bcd60e51b81526020600482015260146024820152734d757374206f776e204e465420746f20766f746560601b6044820152606401610282565b33600090815260088201602052604090205460ff16156114ad5760405162461bcd60e51b815260206004820152601960248201527f416464726573732068617320616c726561647920766f746564000000000000006044820152606401610282565b6000805b60078301548110156115195783805190602001208360070182815481106114da576114da611ad5565b906000526020600020016040516114f19190611b98565b6040518091039020036115075760019150611519565b8061151181611bba565b9150506114b1565b50806115625760405162461bcd60e51b815260206004820152601860248201527710d85b991a59185d1948191bd95cc81b9bdd08195e1a5cdd60421b6044820152606401610282565b81600901836040516115749190611a8a565b908152604051908190036020019020805490600061159183611bba565b909155505033600090815260089092016020525060409020805460ff191660011790555050565b5080546115c490611aeb565b6000825580601f106115d4575050565b601f0160209004906000526020600020908101906115f291906115f5565b50565b5b8082111561160a57600081556001016115f6565b5090565b634e487b7160e01b600052604160045260246000fd5b604051601f8201601f1916810167ffffffffffffffff8111828210171561164d5761164d61160e565b604052919050565b600082601f83011261166657600080fd5b813567ffffffffffffffff8111156116805761168061160e565b611693601f8201601f1916602001611624565b8181528460208386010111156116a857600080fd5b816020850160208301376000918101602001919091529392505050565b600080604083850312156116d857600080fd5b823567ffffffffffffffff808211156116f057600080fd5b6116fc86838701611655565b9350602085013591508082111561171257600080fd5b5061171f85828601611655565b9150509250929050565b60006020828403121561173b57600080fd5b813567ffffffffffffffff81111561175257600080fd5b61175e84828501611655565b949350505050565b60005b83811015611781578181015183820152602001611769565b50506000910152565b600081518084526117a2816020860160208601611766565b601f01601f19169290920160200192915050565b6060815260006117c9606083018661178a565b82810360208401526117db818661178a565b91505060018060a01b0383166040830152949350505050565b600082825180855260208086019550808260051b84010181860160005b8481101561183f57601f1986840301895261182d83835161178a565b98840198925090830190600101611811565b5090979650505050505050565b60208152600061185f60208301846117f4565b9392505050565b60408152600061187960408301856117f4565b82810360208481019190915284518083528582019282019060005b8181101561183f57845183529383019391830191600101611894565b80356001600160a01b03811681146118c757600080fd5b919050565b600082601f8301126118dd57600080fd5b8135602067ffffffffffffffff808311156118fa576118fa61160e565b8260051b611909838201611624565b938452858101830193838101908886111561192357600080fd5b84880192505b8583101561195f578235848111156119415760008081fd5b61194f8a87838c0101611655565b8352509184019190840190611929565b98975050505050505050565b600080600080600080600060e0888a03121561198657600080fd5b873567ffffffffffffffff8082111561199e57600080fd5b6119aa8b838c01611655565b985060208a01359150808211156119c057600080fd5b6119cc8b838c01611655565b975060408a01359150808211156119e257600080fd5b6119ee8b838c01611655565b965060608a0135955060808a01359450611a0a60a08b016118b0565b935060c08a0135915080821115611a2057600080fd5b50611a2d8a828b016118cc565b91505092959891949750929550565b60008060408385031215611a4f57600080fd5b823567ffffffffffffffff811115611a6657600080fd5b611a7285828601611655565b925050611a81602084016118b0565b90509250929050565b60008251611a9c818460208701611766565b9190910192915050565b602080825260159082015274159bdd1a5b99c8191bd95cc81b9bdd08195e1a5cdd605a1b604082015260600190565b634e487b7160e01b600052603260045260246000fd5b600181811c90821680611aff57607f821691505b602082108103611b1f57634e487b7160e01b600052602260045260246000fd5b50919050565b60008154611b3281611aeb565b60018281168015611b4a5760018114611b5f57611b8e565b60ff1984168752821515830287019450611b8e565b8560005260208060002060005b85811015611b855781548a820152908401908201611b6c565b50505082870194505b5050505092915050565b600061185f8284611b25565b634e487b7160e01b600052601160045260246000fd5b600060018201611bcc57611bcc611ba4565b5060010190565b601f821115611c1d57600081815260208120601f850160051c81016020861015611bfa5750805b601f850160051c820191505b81811015611c1957828155600101611c06565b5050505b505050565b815167ffffffffffffffff811115611c3c57611c3c61160e565b611c5081611c4a8454611aeb565b84611bd3565b602080601f831160018114611c855760008415611c6d5750858301515b600019600386901b1c1916600185901b178555611c19565b600085815260208120601f198616915b82811015611cb457888601518255948401946001909101908401611c95565b5085821015611cd25787850151600019600388901b60f8161c191681555b5050505050600190811b01905550565b81810381811115610c9e57610c9e611ba4565b634e487b7160e01b600052603160045260246000fd5b600081611d1a57611d1a611ba4565b506000190190565b818103611d2d575050565b611d378254611aeb565b67ffffffffffffffff811115611d4f57611d4f61160e565b611d5d81611c4a8454611aeb565b6000601f821160018114611d915760008315611d795750848201545b600019600385901b1c1916600184901b178455611df6565b600085815260209020601f19841690600086815260209020845b83811015611dcb5782860154825560019586019590910190602001611dab565b5085831015611de95781850154600019600388901b60f8161c191681555b50505060018360011b0184555b5050505050565b600060208284031215611e0f57600080fd5b505191905056fea2646970667358221220a5a71bc508e0d4ff6daaa51b1283fbf299fd770ce9f5dc5ae47b59357996a56264736f6c63430008140033",
  "linkReferences": {},
  "deployedLinkReferences": {}
}