{
  "_format": "hh-sol-artifact-1",
  "contractName": "VotingPowerNFT",
  "sourceName": "contracts/VotingPowerNFT.sol",
  "abi": [
    {
      "inputs": [
        {
          "internalType": "string",
          "name": "name_",
          "type": "string"
        },
        {
          "internalType": "string",
          "name": "symbol_",
          "type": "string"
        }
      ],
      "stateMutability": "nonpayable",
      "type": "constructor"
    },
    {
      "anonymous": false,
      "inputs": [
        {
          "indexed": true,
          "internalType": "address",
          "name": "owner",
          "type": "address"
        },
        {
          "indexed": true,
          "internalType": "address",
          "name": "approved",
          "type": "address"
        },
        {
          "indexed": true,
          "internalType": "uint256",
          "name": "tokenId",
          "type": "uint256"
        }
      ],
      "name": "Approval",
      "type": "event"
    },
    {
      "anonymous": false,
      "inputs": [
        {
          "indexed": true,
          "internalType": "address",
          "name": "owner",
          "type": "address"
        },
        {
          "indexed": true,
          "internalType": "address",
          "name": "operator",
          "type": "address"
        },
        {
          "indexed": false,
          "internalType": "bool",
          "name": "approved",
          "type": "bool"
        }
      ],
      "name": "ApprovalForAll",
      "type": "event"
    },
    {
      "anonymous": false,
      "inputs": [
        {
          "indexed": true,
          "internalType": "address",
          "name": "previousOwner",
          "type": "address"
        },
        {
          "indexed": true,
          "internalType": "address",
          "name": "newOwner",
          "type": "address"
        }
      ],
      "name": "OwnershipTransferred",
      "type": "event"
    },
    {
      "anonymous": false,
      "inputs": [
        {
          "indexed": true,
          "internalType": "address",
          "name": "from",
          "type": "address"
        },
        {
          "indexed": true,
          "internalType": "address",
          "name": "to",
          "type": "address"
        },
        {
          "indexed": true,
          "internalType": "uint256",
          "name": "tokenId",
          "type": "uint256"
        }
      ],
      "name": "Transfer",
      "type": "event"
    },
    {
      "inputs": [
        {
          "internalType": "address",
          "name": "to",
          "type": "address"
        },
        {
          "internalType": "uint256",
          "name": "tokenId",
          "type": "uint256"
        }
      ],
      "name": "approve",
      "outputs": [],
      "stateMutability": "nonpayable",
      "type": "function"
    },
    {
      "inputs": [
        {
          "internalType": "address",
          "name": "owner",
          "type": "address"
        }
      ],
      "name": "balanceOf",
      "outputs": [
        {
          "internalType": "uint256",
          "name": "",
          "type": "uint256"
        }
      ],
      "stateMutability": "view",
      "type": "function"
    },
    {
      "inputs": [
        {
          "internalType": "address",
          "name": "owner",
          "type": "address"
        }
      ],
      "name": "balanceOfAddress",
      "outputs": [
        {
          "internalType": "uint256",
          "name": "",
          "type": "uint256"
        }
      ],
      "stateMutability": "view",
      "type": "function"
    },
    {
      "inputs": [
        {
          "internalType": "address[]",
          "name": "recipients",
          "type": "address[]"
        }
      ],
      "name": "batchMintNFTs",
      "outputs": [],
      "stateMutability": "nonpayable",
      "type": "function"
    },
    {
      "inputs": [
        {
          "internalType": "uint256",
          "name": "tokenId",
          "type": "uint256"
        }
      ],
      "name": "getApproved",
      "outputs": [
        {
          "internalType": "address",
          "name": "",
          "type": "address"
        }
      ],
      "stateMutability": "view",
      "type": "function"
    },
    {
      "inputs": [],
      "name": "getContractOwner",
      "outputs": [
        {
          "internalType": "address",
          "name": "",
          "type": "address"
        }
      ],
      "stateMutability": "view",
      "type": "function"
    },
    {
      "inputs": [],
      "name": "getNFTName",
      "outputs": [
        {
          "internalType": "string",
          "name": "",
          "type": "string"
        }
      ],
      "stateMutability": "view",
      "type": "function"
    },
    {
      "inputs": [
        {
          "internalType": "uint256",
          "name": "tokenId",
          "type": "uint256"
        }
      ],
      "name": "getOwnerOfToken",
      "outputs": [
        {
          "internalType": "address",
          "name": "",
          "type": "address"
        }
      ],
      "stateMutability": "view",
      "type": "function"
    },
    {
      "inputs": [],
      "name": "getUsersWithNFTs",
      "outputs": [
        {
          "internalType": "address[]",
          "name": "",
          "type": "address[]"
        }
      ],
      "stateMutability": "view",
      "type": "function"
    },
    {
      "inputs": [
        {
          "internalType": "address",
          "name": "addr",
          "type": "address"
        }
      ],
      "name": "hasReceived",
      "outputs": [
        {
          "internalType": "bool",
          "name": "",
          "type": "bool"
        }
      ],
      "stateMutability": "view",
      "type": "function"
    },
    {
      "inputs": [
        {
          "internalType": "address",
          "name": "owner",
          "type": "address"
        },
        {
          "internalType": "address",
          "name": "operator",
          "type": "address"
        }
      ],
      "name": "isApprovedForAll",
      "outputs": [
        {
          "internalType": "bool",
          "name": "",
          "type": "bool"
        }
      ],
      "stateMutability": "view",
      "type": "function"
    },
    {
      "inputs": [
        {
          "internalType": "address",
          "name": "recipient",
          "type": "address"
        }
      ],
      "name": "mintNFT",
      "outputs": [],
      "stateMutability": "nonpayable",
      "type": "function"
    },
    {
      "inputs": [],
      "name": "name",
      "outputs": [
        {
          "internalType": "string",
          "name": "",
          "type": "string"
        }
      ],
      "stateMutability": "view",
      "type": "function"
    },
    {
      "inputs": [],
      "name": "owner",
      "outputs": [
        {
          "internalType": "address",
          "name": "",
          "type": "address"
        }
      ],
      "stateMutability": "view",
      "type": "function"
    },
    {
      "inputs": [
        {
          "internalType": "uint256",
          "name": "tokenId",
          "type": "uint256"
        }
      ],
      "name": "ownerOf",
      "outputs": [
        {
          "internalType": "address",
          "name": "",
          "type": "address"
        }
      ],
      "stateMutability": "view",
      "type": "function"
    },
    {
      "inputs": [],
      "name": "renounceOwnership",
      "outputs": [],
      "stateMutability": "nonpayable",
      "type": "function"
    },
    {
      "inputs": [
        {
          "internalType": "address",
          "name": "from",
          "type": "address"
        },
        {
          "internalType": "address",
          "name": "to",
          "type": "address"
        },
        {
          "internalType": "uint256",
          "name": "tokenId",
          "type": "uint256"
        }
      ],
      "name": "safeTransferFrom",
      "outputs": [],
      "stateMutability": "nonpayable",
      "type": "function"
    },
    {
      "inputs": [
        {
          "internalType": "address",
          "name": "from",
          "type": "address"
        },
        {
          "internalType": "address",
          "name": "to",
          "type": "address"
        },
        {
          "internalType": "uint256",
          "name": "tokenId",
          "type": "uint256"
        },
        {
          "internalType": "bytes",
          "name": "data",
          "type": "bytes"
        }
      ],
      "name": "safeTransferFrom",
      "outputs": [],
      "stateMutability": "nonpayable",
      "type": "function"
    },
    {
      "inputs": [
        {
          "internalType": "address",
          "name": "operator",
          "type": "address"
        },
        {
          "internalType": "bool",
          "name": "approved",
          "type": "bool"
        }
      ],
      "name": "setApprovalForAll",
      "outputs": [],
      "stateMutability": "nonpayable",
      "type": "function"
    },
    {
      "inputs": [
        {
          "internalType": "bytes4",
          "name": "interfaceId",
          "type": "bytes4"
        }
      ],
      "name": "supportsInterface",
      "outputs": [
        {
          "internalType": "bool",
          "name": "",
          "type": "bool"
        }
      ],
      "stateMutability": "view",
      "type": "function"
    },
    {
      "inputs": [],
      "name": "symbol",
      "outputs": [
        {
          "internalType": "string",
          "name": "",
          "type": "string"
        }
      ],
      "stateMutability": "view",
      "type": "function"
    },
    {
      "inputs": [
        {
          "internalType": "uint256",
          "name": "tokenId",
          "type": "uint256"
        }
      ],
      "name": "tokenURI",
      "outputs": [
        {
          "internalType": "string",
          "name": "",
          "type": "string"
        }
      ],
      "stateMutability": "view",
      "type": "function"
    },
    {
      "inputs": [
        {
          "internalType": "address",
          "name": "from",
          "type": "address"
        },
        {
          "internalType": "address",
          "name": "to",
          "type": "address"
        },
        {
          "internalType": "uint256",
          "name": "tokenId",
          "type": "uint256"
        }
      ],
      "name": "transferFrom",
      "outputs": [],
      "stateMutability": "nonpayable",
      "type": "function"
    },
    {
      "inputs": [
        {
          "internalType": "address",
          "name": "newOwner",
          "type": "address"
        }
      ],
      "name": "transferOwnership",
      "outputs": [],
      "stateMutability": "nonpayable",
      "type": "function"
    }
  ],
  "bytecode": "0x60806040523480156200001157600080fd5b5060405162001bea38038062001bea833981016040819052620000349162000193565b818160006200004483826200028c565b5060016200005382826200028c565b505050620000706200006a6200007860201b60201c565b6200007c565b505062000358565b3390565b600680546001600160a01b038381166001600160a01b0319831681179093556040519116919082907f8be0079c531659141344cd1fd0a4f28419497f9722a3daafe3b4186f6b6457e090600090a35050565b634e487b7160e01b600052604160045260246000fd5b600082601f830112620000f657600080fd5b81516001600160401b0380821115620001135762000113620000ce565b604051601f8301601f19908116603f011681019082821181831017156200013e576200013e620000ce565b816040528381526020925086838588010111156200015b57600080fd5b600091505b838210156200017f578582018301518183018401529082019062000160565b600093810190920192909252949350505050565b60008060408385031215620001a757600080fd5b82516001600160401b0380821115620001bf57600080fd5b620001cd86838701620000e4565b93506020850151915080821115620001e457600080fd5b50620001f385828601620000e4565b9150509250929050565b600181811c908216806200021257607f821691505b6020821081036200023357634e487b7160e01b600052602260045260246000fd5b50919050565b601f8211156200028757600081815260208120601f850160051c81016020861015620002625750805b601f850160051c820191505b8181101562000283578281556001016200026e565b5050505b505050565b81516001600160401b03811115620002a857620002a8620000ce565b620002c081620002b98454620001fd565b8462000239565b602080601f831160018114620002f85760008415620002df5750858301515b600019600386901b1c1916600185901b17855562000283565b600085815260208120601f198616915b82811015620003295788860151825594840194600190910190840162000308565b5085821015620003485787850151600019600388901b60f8161c191681555b5050505050600190811b01905550565b61188280620003686000396000f3fe608060405234801561001057600080fd5b50600436106101585760003560e01c806370a08231116100c357806395d89b411161007c57806395d89b41146102ea578063a22cb465146102f2578063b88d4fde14610305578063c87b56dd14610318578063e985e9c51461032b578063f2fde38b1461036757600080fd5b806370a0823114610282578063715018a6146102a35780637f1dd80b146102ab57806386212b8f146102be5780638da5cb5b146102d15780638e329870146102e257600080fd5b806342842e0e1161011557806342842e0e14610200578063442890d51461021357806354ba0f271461021b5780636352211e1461022e5780636522ce0f1461024157806367327ecc1461025657600080fd5b806301ffc9a71461015d57806306fdde0314610185578063081812fc1461019a578063095ea7b3146101c557806309b08dd8146101da57806323b872dd146101ed575b600080fd5b61017061016b3660046112c2565b61037a565b60405190151581526020015b60405180910390f35b61018d6103cc565b60405161017c919061132f565b6101ad6101a8366004611342565b61045e565b6040516001600160a01b03909116815260200161017c565b6101d86101d3366004611377565b610485565b005b6101d86101e83660046113e8565b61059f565b6101d86101fb366004611495565b61068d565b6101d861020e366004611495565b6106be565b6101ad6106d9565b6101d86102293660046114d1565b6106f2565b6101ad61023c366004611342565b61079e565b6102496107fe565b60405161017c91906114ec565b6101706102643660046114d1565b6001600160a01b031660009081526009602052604090205460ff1690565b6102956102903660046114d1565b61085f565b60405190815260200161017c565b6101d86108e5565b6101ad6102b9366004611342565b6108f9565b6102956102cc3660046114d1565b610904565b6006546001600160a01b03166101ad565b61018d61090f565b61018d610919565b6101d8610300366004611539565b610928565b6101d8610313366004611575565b610933565b61018d610326366004611342565b61096b565b610170610339366004611635565b6001600160a01b03918216600090815260056020908152604080832093909416825291909152205460ff1690565b6101d86103753660046114d1565b6109df565b60006001600160e01b031982166380ac58cd60e01b14806103ab57506001600160e01b03198216635b5e139f60e01b145b806103c657506301ffc9a760e01b6001600160e01b03198316145b92915050565b6060600080546103db90611668565b80601f016020809104026020016040519081016040528092919081815260200182805461040790611668565b80156104545780601f1061042957610100808354040283529160200191610454565b820191906000526020600020905b81548152906001019060200180831161043757829003601f168201915b5050505050905090565b600061046982610a58565b506000908152600460205260409020546001600160a01b031690565b60006104908261079e565b9050806001600160a01b0316836001600160a01b0316036105025760405162461bcd60e51b815260206004820152602160248201527f4552433732313a20617070726f76616c20746f2063757272656e74206f776e656044820152603960f91b60648201526084015b60405180910390fd5b336001600160a01b038216148061051e575061051e8133610339565b6105905760405162461bcd60e51b815260206004820152603d60248201527f4552433732313a20617070726f76652063616c6c6572206973206e6f7420746f60448201527f6b656e206f776e6572206f7220617070726f76656420666f7220616c6c00000060648201526084016104f9565b61059a8383610ab7565b505050565b60005b81518110156106895760008282815181106105bf576105bf6116a2565b602002602001015190506105d7600780546001019055565b60006105e260075490565b90506105ee8282610b25565b6001600160a01b03821660009081526009602052604090205460ff16610674576001600160a01b0382166000818152600960205260408120805460ff191660019081179091556008805491820181559091527ff3f7a9fe364faab93b216da50a3214154f22a0a2b415b23a84c8169e8b636ee30180546001600160a01b03191690911790555b50508080610681906116b8565b9150506105a2565b5050565b6106973382610cb0565b6106b35760405162461bcd60e51b81526004016104f9906116df565b61059a838383610d2f565b61059a83838360405180602001604052806000815250610933565b60006106ed6006546001600160a01b031690565b905090565b610700600780546001019055565b600061070b60075490565b90506107178282610b25565b6001600160a01b03821660009081526009602052604090205460ff1661068957506001600160a01b03166000818152600960205260408120805460ff191660019081179091556008805491820181559091527ff3f7a9fe364faab93b216da50a3214154f22a0a2b415b23a84c8169e8b636ee30180546001600160a01b0319169091179055565b6000818152600260205260408120546001600160a01b0316806103c65760405162461bcd60e51b8152602060048201526018602482015277115490cdcc8c4e881a5b9d985b1a59081d1bdad95b88125160421b60448201526064016104f9565b6060600880548060200260200160405190810160405280929190818152602001828054801561045457602002820191906000526020600020905b81546001600160a01b03168152600190910190602001808311610838575050505050905090565b60006001600160a01b0382166108c95760405162461bcd60e51b815260206004820152602960248201527f4552433732313a2061646472657373207a65726f206973206e6f7420612076616044820152683634b21037bbb732b960b91b60648201526084016104f9565b506001600160a01b031660009081526003602052604090205490565b6108ed610e93565b6108f76000610eed565b565b60006103c68261079e565b60006103c68261085f565b60606106ed6103cc565b6060600180546103db90611668565b610689338383610f3f565b61093d3383610cb0565b6109595760405162461bcd60e51b81526004016104f9906116df565b6109658484848461100d565b50505050565b606061097682610a58565b600061098d60408051602081019091526000815290565b905060008151116109ad57604051806020016040528060008152506109d8565b806109b784611040565b6040516020016109c892919061172c565b6040516020818303038152906040525b9392505050565b6109e7610e93565b6001600160a01b038116610a4c5760405162461bcd60e51b815260206004820152602660248201527f4f776e61626c653a206e6577206f776e657220697320746865207a65726f206160448201526564647265737360d01b60648201526084016104f9565b610a5581610eed565b50565b6000818152600260205260409020546001600160a01b0316610a555760405162461bcd60e51b8152602060048201526018602482015277115490cdcc8c4e881a5b9d985b1a59081d1bdad95b88125160421b60448201526064016104f9565b600081815260046020526040902080546001600160a01b0319166001600160a01b0384169081179091558190610aec8261079e565b6001600160a01b03167f8c5be1e5ebec7d5bd14f71427d1e84f3dd0314c0f7b2291e5b200ac8c7c3b92560405160405180910390a45050565b6001600160a01b038216610b7b5760405162461bcd60e51b815260206004820181905260248201527f4552433732313a206d696e7420746f20746865207a65726f206164647265737360448201526064016104f9565b6000818152600260205260409020546001600160a01b031615610be05760405162461bcd60e51b815260206004820152601c60248201527f4552433732313a20746f6b656e20616c7265616479206d696e7465640000000060448201526064016104f9565b6000818152600260205260409020546001600160a01b031615610c455760405162461bcd60e51b815260206004820152601c60248201527f4552433732313a20746f6b656e20616c7265616479206d696e7465640000000060448201526064016104f9565b6001600160a01b038216600081815260036020908152604080832080546001019055848352600290915280822080546001600160a01b0319168417905551839291907fddf252ad1be2c89b69c2b068fc378daa952ba7f163c4a11628f55a4df523b3ef908290a45050565b600080610cbc8361079e565b9050806001600160a01b0316846001600160a01b03161480610d0357506001600160a01b0380821660009081526005602090815260408083209388168352929052205460ff165b80610d275750836001600160a01b0316610d1c8461045e565b6001600160a01b0316145b949350505050565b826001600160a01b0316610d428261079e565b6001600160a01b031614610d685760405162461bcd60e51b81526004016104f99061175b565b6001600160a01b038216610dca5760405162461bcd60e51b8152602060048201526024808201527f4552433732313a207472616e7366657220746f20746865207a65726f206164646044820152637265737360e01b60648201526084016104f9565b826001600160a01b0316610ddd8261079e565b6001600160a01b031614610e035760405162461bcd60e51b81526004016104f99061175b565b600081815260046020908152604080832080546001600160a01b03199081169091556001600160a01b0387811680865260038552838620805460001901905590871680865283862080546001019055868652600290945282852080549092168417909155905184937fddf252ad1be2c89b69c2b068fc378daa952ba7f163c4a11628f55a4df523b3ef91a4505050565b6006546001600160a01b031633146108f75760405162461bcd60e51b815260206004820181905260248201527f4f776e61626c653a2063616c6c6572206973206e6f7420746865206f776e657260448201526064016104f9565b600680546001600160a01b038381166001600160a01b0319831681179093556040519116919082907f8be0079c531659141344cd1fd0a4f28419497f9722a3daafe3b4186f6b6457e090600090a35050565b816001600160a01b0316836001600160a01b031603610fa05760405162461bcd60e51b815260206004820152601960248201527f4552433732313a20617070726f766520746f2063616c6c65720000000000000060448201526064016104f9565b6001600160a01b03838116600081815260056020908152604080832094871680845294825291829020805460ff191686151590811790915591519182527f17307eab39ab6107e8899845ad3d59bd9653f200f220920489ca2b5937696c31910160405180910390a3505050565b611018848484610d2f565b611024848484846110d3565b6109655760405162461bcd60e51b81526004016104f9906117a0565b6060600061104d836111d4565b600101905060008167ffffffffffffffff81111561106d5761106d6113a1565b6040519080825280601f01601f191660200182016040528015611097576020820181803683370190505b5090508181016020015b600019016f181899199a1a9b1b9c1cb0b131b232b360811b600a86061a8153600a85049450846110a157509392505050565b60006001600160a01b0384163b156111c957604051630a85bd0160e11b81526001600160a01b0385169063150b7a02906111179033908990889088906004016117f2565b6020604051808303816000875af1925050508015611152575060408051601f3d908101601f1916820190925261114f9181019061182f565b60015b6111af573d808015611180576040519150601f19603f3d011682016040523d82523d6000602084013e611185565b606091505b5080516000036111a75760405162461bcd60e51b81526004016104f9906117a0565b805181602001fd5b6001600160e01b031916630a85bd0160e11b149050610d27565b506001949350505050565b60008072184f03e93ff9f4daa797ed6e38ed64bf6a1f0160401b83106112135772184f03e93ff9f4daa797ed6e38ed64bf6a1f0160401b830492506040015b6d04ee2d6d415b85acef8100000000831061123f576d04ee2d6d415b85acef8100000000830492506020015b662386f26fc10000831061125d57662386f26fc10000830492506010015b6305f5e1008310611275576305f5e100830492506008015b612710831061128957612710830492506004015b6064831061129b576064830492506002015b600a83106103c65760010192915050565b6001600160e01b031981168114610a5557600080fd5b6000602082840312156112d457600080fd5b81356109d8816112ac565b60005b838110156112fa5781810151838201526020016112e2565b50506000910152565b6000815180845261131b8160208601602086016112df565b601f01601f19169290920160200192915050565b6020815260006109d86020830184611303565b60006020828403121561135457600080fd5b5035919050565b80356001600160a01b038116811461137257600080fd5b919050565b6000806040838503121561138a57600080fd5b6113938361135b565b946020939093013593505050565b634e487b7160e01b600052604160045260246000fd5b604051601f8201601f1916810167ffffffffffffffff811182821017156113e0576113e06113a1565b604052919050565b600060208083850312156113fb57600080fd5b823567ffffffffffffffff8082111561141357600080fd5b818501915085601f83011261142757600080fd5b813581811115611439576114396113a1565b8060051b915061144a8483016113b7565b818152918301840191848101908884111561146457600080fd5b938501935b838510156114895761147a8561135b565b82529385019390850190611469565b98975050505050505050565b6000806000606084860312156114aa57600080fd5b6114b38461135b565b92506114c16020850161135b565b9150604084013590509250925092565b6000602082840312156114e357600080fd5b6109d88261135b565b6020808252825182820181905260009190848201906040850190845b8181101561152d5783516001600160a01b031683529284019291840191600101611508565b50909695505050505050565b6000806040838503121561154c57600080fd5b6115558361135b565b91506020830135801515811461156a57600080fd5b809150509250929050565b6000806000806080858703121561158b57600080fd5b6115948561135b565b935060206115a381870161135b565b935060408601359250606086013567ffffffffffffffff808211156115c757600080fd5b818801915088601f8301126115db57600080fd5b8135818111156115ed576115ed6113a1565b6115ff601f8201601f191685016113b7565b9150808252898482850101111561161557600080fd5b808484018584013760008482840101525080935050505092959194509250565b6000806040838503121561164857600080fd5b6116518361135b565b915061165f6020840161135b565b90509250929050565b600181811c9082168061167c57607f821691505b60208210810361169c57634e487b7160e01b600052602260045260246000fd5b50919050565b634e487b7160e01b600052603260045260246000fd5b6000600182016116d857634e487b7160e01b600052601160045260246000fd5b5060010190565b6020808252602d908201527f4552433732313a2063616c6c6572206973206e6f7420746f6b656e206f776e6560408201526c1c881bdc88185c1c1c9bdd9959609a1b606082015260800190565b6000835161173e8184602088016112df565b8351908301906117528183602088016112df565b01949350505050565b60208082526025908201527f4552433732313a207472616e736665722066726f6d20696e636f72726563742060408201526437bbb732b960d91b606082015260800190565b60208082526032908201527f4552433732313a207472616e7366657220746f206e6f6e20455243373231526560408201527131b2b4bb32b91034b6b83632b6b2b73a32b960711b606082015260800190565b6001600160a01b038581168252841660208201526040810183905260806060820181905260009061182590830184611303565b9695505050505050565b60006020828403121561184157600080fd5b81516109d8816112ac56fea26469706673582212206e26486a82c46aea77d8d103b674810cc32e74e904c945f47dd4327926e542d864736f6c63430008140033",
  "linkReferences": {},
  "deployedLinkReferences": {}
}